{
    "_format": "hh-sol-artifact-1",
    "contractName": "Lottery",
    "sourceName": "contracts/Lottery.sol",
    "abi": [
        {
            "inputs": [],
            "stateMutability": "nonpayable",
            "type": "constructor"
        },
        {
            "inputs": [],
            "name": "enter",
            "outputs": [],
            "stateMutability": "payable",
            "type": "function"
        },
        {
            "inputs": [],
            "name": "getBalance",
            "outputs": [
                {
                    "internalType": "uint256",
                    "name": "",
                    "type": "uint256"
                }
            ],
            "stateMutability": "view",
            "type": "function"
        },
        {
            "inputs": [],
            "name": "getPlayers",
            "outputs": [
                {
                    "internalType": "address payable[]",
                    "name": "",
                    "type": "address[]"
                }
            ],
            "stateMutability": "view",
            "type": "function"
        },
        {
            "inputs": [],
            "name": "getRandomNumber",
            "outputs": [
                {
                    "internalType": "uint256",
                    "name": "",
                    "type": "uint256"
                }
            ],
            "stateMutability": "view",
            "type": "function"
        },
        {
            "inputs": [
                {
                    "internalType": "uint256",
                    "name": "",
                    "type": "uint256"
                }
            ],
            "name": "lotteryHistory",
            "outputs": [
                {
                    "internalType": "address payable",
                    "name": "",
                    "type": "address"
                }
            ],
            "stateMutability": "view",
            "type": "function"
        },
        {
            "inputs": [],
            "name": "lotteryId",
            "outputs": [
                {
                    "internalType": "uint256",
                    "name": "",
                    "type": "uint256"
                }
            ],
            "stateMutability": "view",
            "type": "function"
        },
        {
            "inputs": [],
            "name": "owner",
            "outputs": [
                {
                    "internalType": "address",
                    "name": "",
                    "type": "address"
                }
            ],
            "stateMutability": "view",
            "type": "function"
        },
        {
            "inputs": [],
            "name": "pickWinner",
            "outputs": [],
            "stateMutability": "nonpayable",
            "type": "function"
        },
        {
            "inputs": [
                {
                    "internalType": "uint256",
                    "name": "",
                    "type": "uint256"
                }
            ],
            "name": "players",
            "outputs": [
                {
                    "internalType": "address payable",
                    "name": "",
                    "type": "address"
                }
            ],
            "stateMutability": "view",
            "type": "function"
        },
        {
            "inputs": [],
            "name": "winner",
            "outputs": [
                {
                    "internalType": "address",
                    "name": "",
                    "type": "address"
                }
            ],
            "stateMutability": "view",
            "type": "function"
        }
    ],
    "bytecode": "0x608060405234801561001057600080fd5b50336000806101000a81548173ffffffffffffffffffffffffffffffffffffffff021916908373ffffffffffffffffffffffffffffffffffffffff1602179055506001600281905550610bc0806100686000396000f3fe6080604052600436106100915760003560e01c8063dbdff2c111610059578063dbdff2c11461016b578063dfbf53ae14610196578063e580f47b146101c1578063e97dcb62146101ec578063f71d96cb146101f657610091565b806312065fe0146100965780635d495aea146100c15780636d6fe230146100d85780638b5b9ccc146101155780638da5cb5b14610140575b600080fd5b3480156100a257600080fd5b506100ab610233565b6040516100b891906109be565b60405180910390f35b3480156100cd57600080fd5b506100d661023b565b005b3480156100e457600080fd5b506100ff60048036038101906100fa9190610831565b610558565b60405161010c9190610981565b60405180910390f35b34801561012157600080fd5b5061012a61058b565b604051610137919061099c565b60405180910390f35b34801561014c57600080fd5b50610155610619565b6040516101629190610966565b60405180910390f35b34801561017757600080fd5b5061018061063d565b60405161018d91906109be565b60405180910390f35b3480156101a257600080fd5b506101ab610691565b6040516101b89190610966565b60405180910390f35b3480156101cd57600080fd5b506101d66106b7565b6040516101e391906109be565b60405180910390f35b6101f46106bd565b005b34801561020257600080fd5b5061021d60048036038101906102189190610831565b610736565b60405161022a9190610981565b60405180910390f35b600047905090565b60008054906101000a900473ffffffffffffffffffffffffffffffffffffffff1673ffffffffffffffffffffffffffffffffffffffff163373ffffffffffffffffffffffffffffffffffffffff161461029357600080fd5b60006001805490506102a361063d565b6102ad9190610ad7565b9050600181815481106102e9577f4e487b7100000000000000000000000000000000000000000000000000000000600052603260045260246000fd5b9060005260206000200160009054906101000a900473ffffffffffffffffffffffffffffffffffffffff1673ffffffffffffffffffffffffffffffffffffffff166108fc479081150290604051600060405180830381858888f19350505050158015610359573d6000803e3d6000fd5b5060018181548110610394577f4e487b7100000000000000000000000000000000000000000000000000000000600052603260045260246000fd5b9060005260206000200160009054906101000a900473ffffffffffffffffffffffffffffffffffffffff1660046000600254815260200190815260200160002060006101000a81548173ffffffffffffffffffffffffffffffffffffffff021916908373ffffffffffffffffffffffffffffffffffffffff1602179055506001818154811061044c577f4e487b7100000000000000000000000000000000000000000000000000000000600052603260045260246000fd5b9060005260206000200160009054906101000a900473ffffffffffffffffffffffffffffffffffffffff16600360006101000a81548173ffffffffffffffffffffffffffffffffffffffff021916908373ffffffffffffffffffffffffffffffffffffffff160217905550600260008154809291906104ca90610a60565b9190505550600067ffffffffffffffff811115610510577f4e487b7100000000000000000000000000000000000000000000000000000000600052604160045260246000fd5b60405190808252806020026020018201604052801561053e5781602001602082028036833780820191505090505b5060019080519060200190610554929190610775565b5050565b60046020528060005260406000206000915054906101000a900473ffffffffffffffffffffffffffffffffffffffff1681565b6060600180548060200260200160405190810160405280929190818152602001828054801561060f57602002820191906000526020600020905b8160009054906101000a900473ffffffffffffffffffffffffffffffffffffffff1673ffffffffffffffffffffffffffffffffffffffff16815260200190600101908083116105c5575b5050505050905090565b60008054906101000a900473ffffffffffffffffffffffffffffffffffffffff1681565b60008060009054906101000a900473ffffffffffffffffffffffffffffffffffffffff164260405160200161067392919061093a565b6040516020818303038152906040528051906020012060001c905090565b600360009054906101000a900473ffffffffffffffffffffffffffffffffffffffff1681565b60025481565b662386f26fc100003410156106d157600080fd5b6001339080600181540180825580915050600190039060005260206000200160009091909190916101000a81548173ffffffffffffffffffffffffffffffffffffffff021916908373ffffffffffffffffffffffffffffffffffffffff160217905550565b6001818154811061074657600080fd5b906000526020600020016000915054906101000a900473ffffffffffffffffffffffffffffffffffffffff1681565b8280548282559060005260206000209081019282156107ee579160200282015b828111156107ed5782518260006101000a81548173ffffffffffffffffffffffffffffffffffffffff021916908373ffffffffffffffffffffffffffffffffffffffff16021790555091602001919060010190610795565b5b5090506107fb91906107ff565b5090565b5b80821115610818576000816000905550600101610800565b5090565b60008135905061082b81610b73565b92915050565b60006020828403121561084357600080fd5b60006108518482850161081c565b91505092915050565b60006108668383610872565b60208301905092915050565b61087b81610a24565b82525050565b61088a81610a24565b82525050565b61089981610a12565b82525050565b6108b06108ab82610a12565b610aa9565b82525050565b60006108c1826109e9565b6108cb8185610a01565b93506108d6836109d9565b8060005b838110156109075781516108ee888261085a565b97506108f9836109f4565b9250506001810190506108da565b5085935050505092915050565b61091d81610a56565b82525050565b61093461092f82610a56565b610acd565b82525050565b6000610946828561089f565b6014820191506109568284610923565b6020820191508190509392505050565b600060208201905061097b6000830184610890565b92915050565b60006020820190506109966000830184610881565b92915050565b600060208201905081810360008301526109b681846108b6565b905092915050565b60006020820190506109d36000830184610914565b92915050565b6000819050602082019050919050565b600081519050919050565b6000602082019050919050565b600082825260208201905092915050565b6000610a1d82610a36565b9050919050565b6000610a2f82610a36565b9050919050565b600073ffffffffffffffffffffffffffffffffffffffff82169050919050565b6000819050919050565b6000610a6b82610a56565b91507fffffffffffffffffffffffffffffffffffffffffffffffffffffffffffffffff821415610a9e57610a9d610b08565b5b600182019050919050565b6000610ab482610abb565b9050919050565b6000610ac682610b66565b9050919050565b6000819050919050565b6000610ae282610a56565b9150610aed83610a56565b925082610afd57610afc610b37565b5b828206905092915050565b7f4e487b7100000000000000000000000000000000000000000000000000000000600052601160045260246000fd5b7f4e487b7100000000000000000000000000000000000000000000000000000000600052601260045260246000fd5b60008160601b9050919050565b610b7c81610a56565b8114610b8757600080fd5b5056fea264697066735822122089fd608f28e18adfd5c8cd84fe95611c1f02c46a701d98afd41522a467aa944064736f6c63430008040033",
    "linkReferences": {},
    "deployedLinkReferences": {}
}